{
    "contractName": "VotingContract",
    "abi": [
        {
            "inputs": [
                {
                    "internalType": "string",
                    "name": "_electionName",
                    "type": "string"
                }
            ],
            "stateMutability": "nonpayable",
            "type": "constructor"
        },
        {
            "anonymous": false,
            "inputs": [
                {
                    "indexed": false,
                    "internalType": "string",
                    "name": "msg",
                    "type": "string"
                }
            ],
            "name": "success",
            "type": "event"
        },
        {
            "inputs": [],
            "name": "admin",
            "outputs": [
                {
                    "internalType": "address",
                    "name": "",
                    "type": "address"
                }
            ],
            "stateMutability": "view",
            "type": "function",
            "constant": true
        },
        {
            "inputs": [
                {
                    "internalType": "uint256",
                    "name": "",
                    "type": "uint256"
                }
            ],
            "name": "candidateList",
            "outputs": [
                {
                    "internalType": "string",
                    "name": "name",
                    "type": "string"
                },
                {
                    "internalType": "uint256",
                    "name": "age",
                    "type": "uint256"
                },
                {
                    "internalType": "bool",
                    "name": "registered",
                    "type": "bool"
                },
                {
                    "internalType": "address",
                    "name": "candidateAddress",
                    "type": "address"
                },
                {
                    "internalType": "uint256",
                    "name": "votes",
                    "type": "uint256"
                }
            ],
            "stateMutability": "view",
            "type": "function",
            "constant": true
        },
        {
            "inputs": [
                {
                    "internalType": "address",
                    "name": "",
                    "type": "address"
                }
            ],
            "name": "candidates",
            "outputs": [
                {
                    "internalType": "uint256",
                    "name": "",
                    "type": "uint256"
                }
            ],
            "stateMutability": "view",
            "type": "function",
            "constant": true
        },
        {
            "inputs": [],
            "name": "electionName",
            "outputs": [
                {
                    "internalType": "string",
                    "name": "",
                    "type": "string"
                }
            ],
            "stateMutability": "view",
            "type": "function",
            "constant": true
        },
        {
            "inputs": [
                {
                    "internalType": "address",
                    "name": "",
                    "type": "address"
                }
            ],
            "name": "voterList",
            "outputs": [
                {
                    "internalType": "bool",
                    "name": "registered",
                    "type": "bool"
                },
                {
                    "internalType": "bool",
                    "name": "voted",
                    "type": "bool"
                }
            ],
            "stateMutability": "view",
            "type": "function",
            "constant": true
        },
        {
            "inputs": [],
            "name": "winnerAddress",
            "outputs": [
                {
                    "internalType": "address",
                    "name": "",
                    "type": "address"
                }
            ],
            "stateMutability": "view",
            "type": "function",
            "constant": true
        },
        {
            "inputs": [],
            "name": "winnerVotes",
            "outputs": [
                {
                    "internalType": "uint256",
                    "name": "",
                    "type": "uint256"
                }
            ],
            "stateMutability": "view",
            "type": "function",
            "constant": true
        },
        {
            "inputs": [
                {
                    "internalType": "string",
                    "name": "_name",
                    "type": "string"
                },
                {
                    "internalType": "uint256",
                    "name": "_age",
                    "type": "uint256"
                },
                {
                    "internalType": "address",
                    "name": "_candidateAddress",
                    "type": "address"
                }
            ],
            "name": "candidateRegister",
            "outputs": [],
            "stateMutability": "nonpayable",
            "type": "function"
        },
        {
            "inputs": [
                {
                    "internalType": "address",
                    "name": "_voterAddress",
                    "type": "address"
                }
            ],
            "name": "voterRegister",
            "outputs": [],
            "stateMutability": "nonpayable",
            "type": "function"
        },
        {
            "inputs": [],
            "name": "changePhase",
            "outputs": [],
            "stateMutability": "nonpayable",
            "type": "function"
        },
        {
            "inputs": [
                {
                    "internalType": "address",
                    "name": "_candidateAddress",
                    "type": "address"
                }
            ],
            "name": "castVote",
            "outputs": [],
            "stateMutability": "nonpayable",
            "type": "function"
        },
        {
            "inputs": [],
            "name": "getAllCandidate",
            "outputs": [
                {
                    "components": [
                        {
                            "internalType": "string",
                            "name": "name",
                            "type": "string"
                        },
                        {
                            "internalType": "uint256",
                            "name": "age",
                            "type": "uint256"
                        },
                        {
                            "internalType": "bool",
                            "name": "registered",
                            "type": "bool"
                        },
                        {
                            "internalType": "address",
                            "name": "candidateAddress",
                            "type": "address"
                        },
                        {
                            "internalType": "uint256",
                            "name": "votes",
                            "type": "uint256"
                        }
                    ],
                    "internalType": "struct VotingContract.Candidate[]",
                    "name": "list",
                    "type": "tuple[]"
                }
            ],
            "stateMutability": "view",
            "type": "function",
            "constant": true
        },
        {
            "inputs": [],
            "name": "votingStatus",
            "outputs": [
                {
                    "internalType": "string",
                    "name": "status",
                    "type": "string"
                }
            ],
            "stateMutability": "view",
            "type": "function",
            "constant": true
        },
        {
            "inputs": [],
            "name": "declareResult",
            "outputs": [
                {
                    "components": [
                        {
                            "internalType": "string",
                            "name": "name",
                            "type": "string"
                        },
                        {
                            "internalType": "uint256",
                            "name": "age",
                            "type": "uint256"
                        },
                        {
                            "internalType": "bool",
                            "name": "registered",
                            "type": "bool"
                        },
                        {
                            "internalType": "address",
                            "name": "candidateAddress",
                            "type": "address"
                        },
                        {
                            "internalType": "uint256",
                            "name": "votes",
                            "type": "uint256"
                        }
                    ],
                    "internalType": "struct VotingContract.Candidate",
                    "name": "candidate",
                    "type": "tuple"
                }
            ],
            "stateMutability": "view",
            "type": "function",
            "constant": true
        }
    ],
    "bytecode": "0x608060405234801562000010575f80fd5b5060405162002c0038038062002c00833981810160405281019062000036919062000247565b335f806101000a81548173ffffffffffffffffffffffffffffffffffffffff021916908373ffffffffffffffffffffffffffffffffffffffff1602179055508060029081620000869190620004cd565b505f600381905550600160045f6101000a81548160ff02191690836002811115620000b657620000b5620005b1565b5b021790555050620005de565b5f604051905090565b5f80fd5b5f80fd5b5f80fd5b5f80fd5b5f601f19601f8301169050919050565b7f4e487b71000000000000000000000000000000000000000000000000000000005f52604160045260245ffd5b6200012382620000db565b810181811067ffffffffffffffff82111715620001455762000144620000eb565b5b80604052505050565b5f62000159620000c2565b905062000167828262000118565b919050565b5f67ffffffffffffffff821115620001895762000188620000eb565b5b6200019482620000db565b9050602081019050919050565b5f5b83811015620001c0578082015181840152602081019050620001a3565b5f8484015250505050565b5f620001e1620001db846200016c565b6200014e565b9050828152602081018484840111156200020057620001ff620000d7565b5b6200020d848285620001a1565b509392505050565b5f82601f8301126200022c576200022b620000d3565b5b81516200023e848260208601620001cb565b91505092915050565b5f602082840312156200025f576200025e620000cb565b5b5f82015167ffffffffffffffff8111156200027f576200027e620000cf565b5b6200028d8482850162000215565b91505092915050565b5f81519050919050565b7f4e487b71000000000000000000000000000000000000000000000000000000005f52602260045260245ffd5b5f6002820490506001821680620002e557607f821691505b602082108103620002fb57620002fa620002a0565b5b50919050565b5f819050815f5260205f209050919050565b5f6020601f8301049050919050565b5f82821b905092915050565b5f600883026200035f7fffffffffffffffffffffffffffffffffffffffffffffffffffffffffffffffff8262000322565b6200036b868362000322565b95508019841693508086168417925050509392505050565b5f819050919050565b5f819050919050565b5f620003b5620003af620003a98462000383565b6200038c565b62000383565b9050919050565b5f819050919050565b620003d08362000395565b620003e8620003df82620003bc565b8484546200032e565b825550505050565b5f90565b620003fe620003f0565b6200040b818484620003c5565b505050565b5b818110156200043257620004265f82620003f4565b60018101905062000411565b5050565b601f82111562000481576200044b8162000301565b620004568462000313565b8101602085101562000466578190505b6200047e620004758562000313565b83018262000410565b50505b505050565b5f82821c905092915050565b5f620004a35f198460080262000486565b1980831691505092915050565b5f620004bd838362000492565b9150826002028217905092915050565b620004d88262000296565b67ffffffffffffffff811115620004f457620004f3620000eb565b5b620005008254620002cd565b6200050d82828562000436565b5f60209050601f83116001811462000543575f84156200052e578287015190505b6200053a8582620004b0565b865550620005a9565b601f198416620005538662000301565b5f5b828110156200057c5784890151825560018201915060208501945060208101905062000555565b868310156200059c578489015162000598601f89168262000492565b8355505b6001600288020188555050505b505050505050565b7f4e487b71000000000000000000000000000000000000000000000000000000005f52602160045260245ffd5b61261480620005ec5f395ff3fe608060405234801561000f575f80fd5b50600436106100e8575f3560e01c80638e1ec2b71161008a578063db6f595311610064578063db6f59531461024d578063ed7a4e0b14610257578063efd5297c14610275578063f851a44014610293576100e8565b80638e1ec2b7146101e1578063af154087146101fd578063b13c744b14610219576100e8565b80637b3a74c6116100c65780637b3a74c6146101575780638574c2961461017557806385e8e7a7146101935780638ab66a90146101b1576100e8565b806303b4caed146100ec57806319f41a401461011d57806353358fc41461013b575b5f80fd5b610106600480360381019061010191906115b3565b6102b1565b6040516101149291906115f8565b60405180910390f35b6101256102e9565b60405161013291906116a9565b60405180910390f35b610155600480360381019061015091906115b3565b610415565b005b61015f610835565b60405161016c91906116e1565b60405180910390f35b61017d61083b565b60405161018a91906117e2565b60405180910390f35b61019b610a71565b6040516101a891906116a9565b60405180910390f35b6101cb60048036038101906101c691906115b3565b610afd565b6040516101d891906116e1565b60405180910390f35b6101fb60048036038101906101f69190611958565b610b12565b005b610217600480360381019061021291906115b3565b610e52565b005b610233600480360381019061022e91906119c4565b6110d0565b6040516102449594939291906119fe565b60405180910390f35b6102556111c3565b005b61025f61134e565b60405161026c9190611a56565b60405180910390f35b61027d611373565b60405161028a9190611b9d565b60405180910390f35b61029b6114e2565b6040516102a89190611a56565b60405180910390f35b6007602052805f5260405f205f91509050805f015f9054906101000a900460ff1690805f0160019054906101000a900460ff16905082565b6060600160028111156102ff576102fe611bbd565b5b60045f9054906101000a900460ff1660028111156103205761031f611bbd565b5b03610362576040518060400160405280600a81526020017f4e4f5453544152544544000000000000000000000000000000000000000000008152509050610412565b5f600281111561037557610374611bbd565b5b60045f9054906101000a900460ff16600281111561039657610395611bbd565b5b036103d8576040518060400160405280600781526020017f4f4e474f494e47000000000000000000000000000000000000000000000000008152509050610411565b6040518060400160405280600581526020017f454e44454400000000000000000000000000000000000000000000000000000081525090505b5b90565b5f8054906101000a900473ffffffffffffffffffffffffffffffffffffffff1673ffffffffffffffffffffffffffffffffffffffff163373ffffffffffffffffffffffffffffffffffffffff16036104a2576040517f08c379a000000000000000000000000000000000000000000000000000000000815260040161049990611c34565b60405180910390fd5b6001151560075f3373ffffffffffffffffffffffffffffffffffffffff1673ffffffffffffffffffffffffffffffffffffffff1681526020019081526020015f205f015f9054906101000a900460ff16151514610534576040517f08c379a000000000000000000000000000000000000000000000000000000000815260040161052b90611c9c565b60405180910390fd5b5f151560075f3373ffffffffffffffffffffffffffffffffffffffff1673ffffffffffffffffffffffffffffffffffffffff1681526020019081526020015f205f0160019054906101000a900460ff161515146105c6576040517f08c379a00000000000000000000000000000000000000000000000000000000081526004016105bd90611d04565b60405180910390fd5b60011515600660055f8473ffffffffffffffffffffffffffffffffffffffff1673ffffffffffffffffffffffffffffffffffffffff1681526020019081526020015f20548154811061061b5761061a611d22565b5b905f5260205f2090600402016002015f9054906101000a900460ff16151514610679576040517f08c379a000000000000000000000000000000000000000000000000000000000815260040161067090611d99565b60405180910390fd5b600660055f8373ffffffffffffffffffffffffffffffffffffffff1673ffffffffffffffffffffffffffffffffffffffff1681526020019081526020015f2054815481106106ca576106c9611d22565b5b905f5260205f2090600402016003015f8154809291906106e990611de4565b9190505550600160075f3373ffffffffffffffffffffffffffffffffffffffff1673ffffffffffffffffffffffffffffffffffffffff1681526020019081526020015f205f0160016101000a81548160ff0219169083151502179055505f600660055f8473ffffffffffffffffffffffffffffffffffffffff1673ffffffffffffffffffffffffffffffffffffffff1681526020019081526020015f20548154811061079857610797611d22565b5b905f5260205f2090600402016003015490506003548111156107fc57806003819055508160015f6101000a81548173ffffffffffffffffffffffffffffffffffffffff021916908373ffffffffffffffffffffffffffffffffffffffff1602179055505b7f68f068b2f0d02fca99bc8285b62fce8668fe16b7c6a810351ea25bff358c0dd860405161082990611e75565b60405180910390a15050565b60035481565b610843611505565b5f8054906101000a900473ffffffffffffffffffffffffffffffffffffffff1673ffffffffffffffffffffffffffffffffffffffff163373ffffffffffffffffffffffffffffffffffffffff16146108d0576040517f08c379a00000000000000000000000000000000000000000000000000000000081526004016108c790611edd565b60405180910390fd5b600660055f60015f9054906101000a900473ffffffffffffffffffffffffffffffffffffffff1673ffffffffffffffffffffffffffffffffffffffff1673ffffffffffffffffffffffffffffffffffffffff1681526020019081526020015f20548154811061094257610941611d22565b5b905f5260205f2090600402016040518060a00160405290815f8201805461096890611f28565b80601f016020809104026020016040519081016040528092919081815260200182805461099490611f28565b80156109df5780601f106109b6576101008083540402835291602001916109df565b820191905f5260205f20905b8154815290600101906020018083116109c257829003601f168201915b5050505050815260200160018201548152602001600282015f9054906101000a900460ff161515151581526020016002820160019054906101000a900473ffffffffffffffffffffffffffffffffffffffff1673ffffffffffffffffffffffffffffffffffffffff1673ffffffffffffffffffffffffffffffffffffffff168152602001600382015481525050905090565b60028054610a7e90611f28565b80601f0160208091040260200160405190810160405280929190818152602001828054610aaa90611f28565b8015610af55780601f10610acc57610100808354040283529160200191610af5565b820191905f5260205f20905b815481529060010190602001808311610ad857829003601f168201915b505050505081565b6005602052805f5260405f205f915090505481565b5f8054906101000a900473ffffffffffffffffffffffffffffffffffffffff1673ffffffffffffffffffffffffffffffffffffffff163373ffffffffffffffffffffffffffffffffffffffff1614610b9f576040517f08c379a0000000000000000000000000000000000000000000000000000000008152600401610b9690611fc8565b60405180910390fd5b5f8054906101000a900473ffffffffffffffffffffffffffffffffffffffff1673ffffffffffffffffffffffffffffffffffffffff168173ffffffffffffffffffffffffffffffffffffffff1603610c2c576040517f08c379a0000000000000000000000000000000000000000000000000000000008152600401610c2390612030565b60405180910390fd5b5f60055f8373ffffffffffffffffffffffffffffffffffffffff1673ffffffffffffffffffffffffffffffffffffffff1681526020019081526020015f205414610cab576040517f08c379a0000000000000000000000000000000000000000000000000000000008152600401610ca290612098565b60405180910390fd5b5f6040518060a001604052808581526020018481526020016001151581526020018373ffffffffffffffffffffffffffffffffffffffff1681526020015f81525090505f60068054905003610d1757600660018160018154018082558091505003905f5260205f209050505b60068054905060055f8473ffffffffffffffffffffffffffffffffffffffff1673ffffffffffffffffffffffffffffffffffffffff1681526020019081526020015f2081905550600681908060018154018082558091505060019003905f5260205f2090600402015f909190919091505f820151815f019081610d9a9190612253565b50602082015181600101556040820151816002015f6101000a81548160ff02191690831515021790555060608201518160020160016101000a81548173ffffffffffffffffffffffffffffffffffffffff021916908373ffffffffffffffffffffffffffffffffffffffff1602179055506080820151816003015550507f68f068b2f0d02fca99bc8285b62fce8668fe16b7c6a810351ea25bff358c0dd8604051610e4490612392565b60405180910390a150505050565b5f8054906101000a900473ffffffffffffffffffffffffffffffffffffffff1673ffffffffffffffffffffffffffffffffffffffff168173ffffffffffffffffffffffffffffffffffffffff1603610edf576040517f08c379a0000000000000000000000000000000000000000000000000000000008152600401610ed6906123fa565b60405180910390fd5b5f8054906101000a900473ffffffffffffffffffffffffffffffffffffffff1673ffffffffffffffffffffffffffffffffffffffff163373ffffffffffffffffffffffffffffffffffffffff1614610f6c576040517f08c379a0000000000000000000000000000000000000000000000000000000008152600401610f6390612488565b60405180910390fd5b5f151560075f8373ffffffffffffffffffffffffffffffffffffffff1673ffffffffffffffffffffffffffffffffffffffff1681526020019081526020015f205f015f9054906101000a900460ff16151514610ffd576040517f08c379a0000000000000000000000000000000000000000000000000000000008152600401610ff4906124f0565b60405180910390fd5b5f60405180604001604052806001151581526020015f151581525090508060075f8473ffffffffffffffffffffffffffffffffffffffff1673ffffffffffffffffffffffffffffffffffffffff1681526020019081526020015f205f820151815f015f6101000a81548160ff0219169083151502179055506020820151815f0160016101000a81548160ff0219169083151502179055509050507f68f068b2f0d02fca99bc8285b62fce8668fe16b7c6a810351ea25bff358c0dd86040516110c490612558565b60405180910390a15050565b600681815481106110df575f80fd5b905f5260205f2090600402015f91509050805f0180546110fe90611f28565b80601f016020809104026020016040519081016040528092919081815260200182805461112a90611f28565b80156111755780601f1061114c57610100808354040283529160200191611175565b820191905f5260205f20905b81548152906001019060200180831161115857829003601f168201915b505050505090806001015490806002015f9054906101000a900460ff16908060020160019054906101000a900473ffffffffffffffffffffffffffffffffffffffff16908060030154905085565b5f8054906101000a900473ffffffffffffffffffffffffffffffffffffffff1673ffffffffffffffffffffffffffffffffffffffff163373ffffffffffffffffffffffffffffffffffffffff1614611250576040517f08c379a0000000000000000000000000000000000000000000000000000000008152600401611247906125c0565b60405180910390fd5b6001600281111561126457611263611bbd565b5b60045f9054906101000a900460ff16600281111561128557611284611bbd565b5b036112b8575f60045f6101000a81548160ff021916908360028111156112ae576112ad611bbd565b5b021790555061134c565b5f60028111156112cb576112ca611bbd565b5b60045f9054906101000a900460ff1660028111156112ec576112eb611bbd565b5b0361132057600260045f6101000a81548160ff0219169083600281111561131657611315611bbd565b5b021790555061134b565b600160045f6101000a81548160ff0219169083600281111561134557611344611bbd565b5b02179055505b5b565b60015f9054906101000a900473ffffffffffffffffffffffffffffffffffffffff1681565b60606006805480602002602001604051908101604052809291908181526020015f905b828210156114d9578382905f5260205f2090600402016040518060a00160405290815f820180546113c690611f28565b80601f01602080910402602001604051908101604052809291908181526020018280546113f290611f28565b801561143d5780601f106114145761010080835404028352916020019161143d565b820191905f5260205f20905b81548152906001019060200180831161142057829003601f168201915b5050505050815260200160018201548152602001600282015f9054906101000a900460ff161515151581526020016002820160019054906101000a900473ffffffffffffffffffffffffffffffffffffffff1673ffffffffffffffffffffffffffffffffffffffff1673ffffffffffffffffffffffffffffffffffffffff16815260200160038201548152505081526020019060010190611396565b50505050905090565b5f8054906101000a900473ffffffffffffffffffffffffffffffffffffffff1681565b6040518060a00160405280606081526020015f81526020015f151581526020015f73ffffffffffffffffffffffffffffffffffffffff1681526020015f81525090565b5f604051905090565b5f80fd5b5f80fd5b5f73ffffffffffffffffffffffffffffffffffffffff82169050919050565b5f61158282611559565b9050919050565b61159281611578565b811461159c575f80fd5b50565b5f813590506115ad81611589565b92915050565b5f602082840312156115c8576115c7611551565b5b5f6115d58482850161159f565b91505092915050565b5f8115159050919050565b6115f2816115de565b82525050565b5f60408201905061160b5f8301856115e9565b61161860208301846115e9565b9392505050565b5f81519050919050565b5f82825260208201905092915050565b5f5b8381101561165657808201518184015260208101905061163b565b5f8484015250505050565b5f601f19601f8301169050919050565b5f61167b8261161f565b6116858185611629565b9350611695818560208601611639565b61169e81611661565b840191505092915050565b5f6020820190508181035f8301526116c18184611671565b905092915050565b5f819050919050565b6116db816116c9565b82525050565b5f6020820190506116f45f8301846116d2565b92915050565b5f82825260208201905092915050565b5f6117148261161f565b61171e81856116fa565b935061172e818560208601611639565b61173781611661565b840191505092915050565b61174b816116c9565b82525050565b61175a816115de565b82525050565b61176981611578565b82525050565b5f60a083015f8301518482035f860152611789828261170a565b915050602083015161179e6020860182611742565b5060408301516117b16040860182611751565b5060608301516117c46060860182611760565b5060808301516117d76080860182611742565b508091505092915050565b5f6020820190508181035f8301526117fa818461176f565b905092915050565b5f80fd5b5f80fd5b7f4e487b71000000000000000000000000000000000000000000000000000000005f52604160045260245ffd5b61184082611661565b810181811067ffffffffffffffff8211171561185f5761185e61180a565b5b80604052505050565b5f611871611548565b905061187d8282611837565b919050565b5f67ffffffffffffffff82111561189c5761189b61180a565b5b6118a582611661565b9050602081019050919050565b828183375f83830152505050565b5f6118d26118cd84611882565b611868565b9050828152602081018484840111156118ee576118ed611806565b5b6118f98482856118b2565b509392505050565b5f82601f83011261191557611914611802565b5b81356119258482602086016118c0565b91505092915050565b611937816116c9565b8114611941575f80fd5b50565b5f813590506119528161192e565b92915050565b5f805f6060848603121561196f5761196e611551565b5b5f84013567ffffffffffffffff81111561198c5761198b611555565b5b61199886828701611901565b93505060206119a986828701611944565b92505060406119ba8682870161159f565b9150509250925092565b5f602082840312156119d9576119d8611551565b5b5f6119e684828501611944565b91505092915050565b6119f881611578565b82525050565b5f60a0820190508181035f830152611a168188611671565b9050611a2560208301876116d2565b611a3260408301866115e9565b611a3f60608301856119ef565b611a4c60808301846116d2565b9695505050505050565b5f602082019050611a695f8301846119ef565b92915050565b5f81519050919050565b5f82825260208201905092915050565b5f819050602082019050919050565b5f60a083015f8301518482035f860152611ab2828261170a565b9150506020830151611ac76020860182611742565b506040830151611ada6040860182611751565b506060830151611aed6060860182611760565b506080830151611b006080860182611742565b508091505092915050565b5f611b168383611a98565b905092915050565b5f602082019050919050565b5f611b3482611a6f565b611b3e8185611a79565b935083602082028501611b5085611a89565b805f5b85811015611b8b5784840389528151611b6c8582611b0b565b9450611b7783611b1e565b925060208a01995050600181019050611b53565b50829750879550505050505092915050565b5f6020820190508181035f830152611bb58184611b2a565b905092915050565b7f4e487b71000000000000000000000000000000000000000000000000000000005f52602160045260245ffd5b7f41646d696e2063616e6e6f742063617374206120566f746521000000000000005f82015250565b5f611c1e601983611629565b9150611c2982611bea565b602082019050919050565b5f6020820190508181035f830152611c4b81611c12565b9050919050565b7f596f7520617265206e6f742072656769737465726564000000000000000000005f82015250565b5f611c86601683611629565b9150611c9182611c52565b602082019050919050565b5f6020820190508181035f830152611cb381611c7a565b9050919050565b7f596f75206861766520616c726561647920766f746564000000000000000000005f82015250565b5f611cee601683611629565b9150611cf982611cba565b602082019050919050565b5f6020820190508181035f830152611d1b81611ce2565b9050919050565b7f4e487b71000000000000000000000000000000000000000000000000000000005f52603260045260245ffd5b7f43616e646964617465206973206e6f74207265676973746572656400000000005f82015250565b5f611d83601b83611629565b9150611d8e82611d4f565b602082019050919050565b5f6020820190508181035f830152611db081611d77565b9050919050565b7f4e487b71000000000000000000000000000000000000000000000000000000005f52601160045260245ffd5b5f611dee826116c9565b91507fffffffffffffffffffffffffffffffffffffffffffffffffffffffffffffffff8203611e2057611e1f611db7565b5b600182019050919050565b7f566f746520636173746564207375636365737366756c6c7921000000000000005f82015250565b5f611e5f601983611629565b9150611e6a82611e2b565b602082019050919050565b5f6020820190508181035f830152611e8c81611e53565b9050919050565b7f4f6e6c792061646d696e2063616e206465636c61726520726573756c747321005f82015250565b5f611ec7601f83611629565b9150611ed282611e93565b602082019050919050565b5f6020820190508181035f830152611ef481611ebb565b9050919050565b7f4e487b71000000000000000000000000000000000000000000000000000000005f52602260045260245ffd5b5f6002820490506001821680611f3f57607f821691505b602082108103611f5257611f51611efb565b5b50919050565b7f4f6e6c792061646d696e2063616e2072656769737465722063616e64696461745f8201527f6500000000000000000000000000000000000000000000000000000000000000602082015250565b5f611fb2602183611629565b9150611fbd82611f58565b604082019050919050565b5f6020820190508181035f830152611fdf81611fa6565b9050919050565b7f41646d696e2063616e206e6f7420626520612063616e646964617465000000005f82015250565b5f61201a601c83611629565b915061202582611fe6565b602082019050919050565b5f6020820190508181035f8301526120478161200e565b9050919050565b7f43616e64696461746520697320616c72656164792072656769737465726564005f82015250565b5f612082601f83611629565b915061208d8261204e565b602082019050919050565b5f6020820190508181035f8301526120af81612076565b9050919050565b5f819050815f5260205f209050919050565b5f6020601f8301049050919050565b5f82821b905092915050565b5f600883026121127fffffffffffffffffffffffffffffffffffffffffffffffffffffffffffffffff826120d7565b61211c86836120d7565b95508019841693508086168417925050509392505050565b5f819050919050565b5f61215761215261214d846116c9565b612134565b6116c9565b9050919050565b5f819050919050565b6121708361213d565b61218461217c8261215e565b8484546120e3565b825550505050565b5f90565b61219861218c565b6121a3818484612167565b505050565b5b818110156121c6576121bb5f82612190565b6001810190506121a9565b5050565b601f82111561220b576121dc816120b6565b6121e5846120c8565b810160208510156121f4578190505b612208612200856120c8565b8301826121a8565b50505b505050565b5f82821c905092915050565b5f61222b5f1984600802612210565b1980831691505092915050565b5f612243838361221c565b9150826002028217905092915050565b61225c8261161f565b67ffffffffffffffff8111156122755761227461180a565b5b61227f8254611f28565b61228a8282856121ca565b5f60209050601f8311600181146122bb575f84156122a9578287015190505b6122b38582612238565b86555061231a565b601f1984166122c9866120b6565b5f5b828110156122f0578489015182556001820191506020850194506020810190506122cb565b8683101561230d5784890151612309601f89168261221c565b8355505b6001600288020188555050505b505050505050565b7f43616e6469646174652072656769737465726564205375636365737366756c6c5f8201527f7921000000000000000000000000000000000000000000000000000000000000602082015250565b5f61237c602283611629565b915061238782612322565b604082019050919050565b5f6020820190508181035f8301526123a981612370565b9050919050565b7f4f776e65722063616e206e6f7420766f746521210000000000000000000000005f82015250565b5f6123e4601483611629565b91506123ef826123b0565b602082019050919050565b5f6020820190508181035f830152612411816123d8565b9050919050565b7f4f6e6c79206f776e65722063616e2077686974656c69737420746865206164645f8201527f7265737365732121000000000000000000000000000000000000000000000000602082015250565b5f612472602883611629565b915061247d82612418565b604082019050919050565b5f6020820190508181035f83015261249f81612466565b9050919050565b7f566f74657220616c7265616479207265676973746572656421210000000000005f82015250565b5f6124da601a83611629565b91506124e5826124a6565b602082019050919050565b5f6020820190508181035f830152612507816124ce565b9050919050565b7f566f7465722072656769737465726564212100000000000000000000000000005f82015250565b5f612542601283611629565b915061254d8261250e565b602082019050919050565b5f6020820190508181035f83015261256f81612536565b9050919050565b7f4f6e6c792061646d696e2063616e206368616e676520706861736500000000005f82015250565b5f6125aa601b83611629565b91506125b582612576565b602082019050919050565b5f6020820190508181035f8301526125d78161259e565b905091905056fea26469706673582212201f238653e2e532e871bb0217ceb954addec036c63422a50cf9247e52f506151d64736f6c63430008140033",
    "immutableReferences": {},
    "source": "// SPDX-License-Identifier: GPL-3.0\n\npragma solidity ^0.8.0;\n\n\ncontract VotingContract {\n\n    address public admin;   // Address of admin\n    address public winnerAddress;   // Address of winner\n    string public electionName;  //Name of an election\n    uint public winnerVotes;     // winner so far\n    enum votingPhase{\n        ONGOING,\n        NOTSTARTED,\n        ENDED\n    }\n    votingPhase phase;\n\n    struct Candidate{\n        string name;\n        uint age;\n        bool registered;\n        address candidateAddress;\n        uint votes;\n    }\n\n    struct Voter{\n        bool registered;\n        bool voted;\n    }\n\n    event success(string msg);\n    mapping (address => uint) public candidates;   // maps candidate's address to their index in candidateList\n    Candidate[] public candidateList;              \n    mapping (address => Voter) public voterList; \n\n    constructor(string memory _electionName){\n        admin = msg.sender;\n        electionName = _electionName;\n        winnerVotes = 0;\n        phase = votingPhase.NOTSTARTED;\n    }  \n\n    function candidateRegister(string memory _name, uint _age, address _candidateAddress) public{\n        require(msg.sender == admin, \"Only admin can register candidate\");  \n        require(_candidateAddress != admin, \"Admin can not be a candidate\");\n        require(candidates[_candidateAddress]==0, \"Candidate is already registered\");\n\n        Candidate memory candidate = Candidate({\n            name : _name,\n            age : _age,\n            registered : true,\n            candidateAddress : _candidateAddress,\n            votes : 0\n        });\n\n        if(candidateList.length==0){\n            candidateList.push();\n        }\n\n        candidates[_candidateAddress] = candidateList.length;\n        candidateList.push(candidate);\n        emit success(\"Candidate registered Successfully!\");\n    }\n\n\n    function voterRegister(address _voterAddress) public {\n        require(_voterAddress != admin, \"Owner can not vote!!\");\n        require(msg.sender == admin, \"Only owner can whitelist the addresses!!\");\n        require(voterList[_voterAddress].registered == false, \"Voter already registered!!\");\n        Voter memory voter = Voter({\n            registered: true,\n            voted: false\n        });\n\n        voterList[_voterAddress] = voter;\n        emit success(\"Voter registered!!\");\n    }\n\n    function changePhase() public {\n        require(msg.sender == admin, \"Only admin can change phase\");\n        if(phase == votingPhase.NOTSTARTED){\n            phase = votingPhase.ONGOING;\n        }else if(phase == votingPhase.ONGOING){\n            phase = votingPhase.ENDED;\n        }else{\n            phase = votingPhase.NOTSTARTED;\n        }\n    }\n\n\n    function castVote(address _candidateAddress) public {\n        require(msg.sender != admin, \"Admin cannot cast a Vote!\");  \n        require(voterList[msg.sender].registered==true,\"You are not registered\");\n        require(voterList[msg.sender].voted==false, \"You have already voted\");\n        require(candidateList[candidates[_candidateAddress]].registered == true, \"Candidate is not registered\");\n\n        candidateList[candidates[_candidateAddress]].votes ++;\n        voterList[msg.sender].voted = true;\n\n        uint candidateVotes = candidateList[candidates[_candidateAddress]].votes;\n\n        if(candidateVotes > winnerVotes){\n            winnerVotes = candidateVotes;\n            winnerAddress = _candidateAddress;\n        }\n\n        emit success(\"Vote casted successfully!\");\n    }\n\n    function getAllCandidate() public view returns(Candidate[] memory list){\n        return candidateList;\n    }\n\n    function votingStatus() public view returns(string memory status){\n        \n        if(phase == votingPhase.NOTSTARTED){\n            status = \"NOTSTARTED\";\n        }else if(phase==votingPhase.ONGOING){\n            status = \"ONGOING\";\n        }else{\n            status = \"ENDED\";\n        }\n        return status;\n    }\n\n    function declareResult() public view returns(Candidate memory candidate){\n        require(msg.sender == admin, \"Only admin can declare results!\");\n        return candidateList[candidates[winnerAddress]];\n    }\n}",
    "sourcePath": "C:\\Projects\\Voting-app\\blockchain\\contracts\\VotingContract.sol",
    "compiler": {
        "name": "solc",
        "version": "0.8.20+commit.a1b79de6.Emscripten.clang"
    },
    "schemaVersion": "3.4.14",
    "updatedAt": "2023-07-15T18:41:58.882Z",
    "networkType": "ethereum",
    "devdoc": {
        "kind": "dev",
        "methods": {},
        "version": 1
    },
    "userdoc": {
        "kind": "user",
        "methods": {},
        "version": 1
    }
}